:020000040800F2
:100000000000022029030008C9030008D1030008EA
:10001000D9030008E1030008E9030008000000001C
:10002000000000000000000000000000C103000804
:10003000C103000800000000C1030008110300080C
:10004000C1030008C1030008C1030008C103000880
:10005000C1030008C1030008C1030008C103000870
:10006000C1030008C1030008C1030008C103000860
:10007000C1030008C1030008C1030008C103000850
:10008000C1030008C1030008C1030008C103000840
:10009000C1030008C1030008C1030008C103000830
:1000A000C1030008C1030008C1030008C103000820
:1000B000C1030008C1030008C1030008C103000810
:1000C000C1030008C1030008C1030008C103000800
:1000D000C1030008C1030008C1030008C1030008F0
:1000E000C1030008C1030008C1030008C1030008E0
:1000F000C1030008C1030008C1030008C1030008D0
:10010000C1030008C1030008C1030008C1030008BF
:10011000C1030008C1030008C1030008C1030008AF
:10012000C1030008C1030008C1030008C10300089F
:10013000C1030008C1030008C1030008C10300088F
:10014000C1030008C1030008C1030008C10300087F
:10015000C1030008C1030008C1030008C10300086F
:10016000C1030008C1030008C1030008C10300085F
:10017000C1030008C1030008C1030008000000001B
:10018000C1030008C10300080348044B834202D0A6
:10019000034B03B1184770471400002014000020DF
:1001A000000000000548064B1B1AD90F01EBA30104
:1001B000491002D0034B03B11847704714000020C8
:1001C000140000200000000010B5064C237843B94D
:1001D000FFF7DAFF044B13B10448AFF300800123AB
:1001E000237010BD1400002000000000280B000840
:1001F00008B5054B1BB105490548AFF30080BDE8C4
:100200000840FFF7CFBF00BF00000000180000202B
:10021000280B0008A3F5803A704700BF174B002B4E
:1002200008BF134B9D46FFF7F5FF00218B460F4695
:100230001348144A121A00F03FFC0E4B002B00D05A
:1002400098470D4B002B00D0984700200021040058
:100250000D000D48002802D00C48AFF3008000F0DC
:1002600033FC2000290000F041F800F013FC00BF2F
:1002700000000800000000001D030008000002202C
:1002800014000020380000200000000000000000E2
:1002900080B586B000AF00233B60124B1B6B114A48
:1002A00043F0040313630F4B1B6B03F004033B6029
:1002B0003B683B1D00221A605A609A60DA601A613E
:1002C0004FF400537B600123BB600023FB600223DB
:1002D0003B613B1D1946044800F088F900BF183700
:1002E000BD4680BD003802400008024080B500AF26
:1002F000FFF7CEFF4FF40051044800F013FB4FF41A
:100300007A7000F0A3FB00BFF4E700BF00080240D2
:1003100080B500AF00F07AFB00BF80BD80B500AFB4
:1003200000F01AFB00BF80BD80B584B000AF00F0C4
:1003300065F81F4BFB6019E00023BB600EE0FB6813
:100340001A68BB689B001A44FB685968BB689B002D
:100350000B4412681A60BB680133BB60FB689B6882
:10036000BA689A42EBD3FB680C33FB60FB68114A16
:100370009342E1D3104B7B6014E000233B6009E023
:100380007B681A683B689B00134400221A603B6834
:1003900001333B607B685B683A689A42F0D37B68C4
:1003A00008337B607B68054A9342E6D3FFF736FF4C
:1003B000340B0008400B0008400B0008400B0008FD
:1003C00080B400AF00BFFDE780B400AF00BFFDE721
:1003D00080B400AF00BFFDE780B400AF00BFFDE711
:1003E00080B400AF00BFFDE780B400AF00BFFDE701
:1003F00080B483B000AF786000BFFDE780B400AF89
:10040000064BD3F88830054A43F47003C2F88830AD
:1004100000BFBD465DF8047B704700BF00ED00E003
:1004200080B485B000AF78607B6803F00703FB60A1
:100430000C4BDB68BB60BA684FF6FF031340BB6030
:10044000FB681A02BB68134343F0BF6343F40033F5
:10045000BB60044ABB68D36000BF1437BD465DF87B
:10046000047B704700ED00E080B400AF044BDB6814
:100470001B0A03F007031846BD465DF8047B70476E
:1004800000ED00E080B483B000AF03463960FB713B
:1004900097F90730002B0ADB3B68DAB20C4997F971
:1004A00007301201D2B20B4483F800230AE03B6804
:1004B000DAB20849FB7903F00F03043B1201D2B210
:1004C0000B441A7600BF0C37BD465DF8047B7047BD
:1004D00000E100E000ED00E080B489B000AFF8601A
:1004E000B9607A60FB6803F00703FB61FB69C3F145
:1004F0000703042B28BF0423BB61FB690433062BCD
:1005000002D9FB69033B00E000237B614FF0FF321F
:10051000BB6902FA03F3DA43BB681A407B699A406D
:100520004FF0FF317B6901FA03F3D9437B680B403D
:10053000134318462437BD465DF8047B704700001E
:1005400080B582B000AF78607B68013BB3F1807FFB
:1005500001D301230FE00A4A7B68013B53600F215E
:100560004FF0FF30FFF78EFF054B00229A60044BDF
:1005700007221A60002318460837BD4680BD00BF19
:1005800010E000E080B582B000AF78607868FFF7D7
:1005900047FF00BF0837BD4680BD80B586B000AFBD
:1005A0000346B9607A60FB7300237B61FFF75CFF51
:1005B00078617A68B9687869FFF78EFF024697F923
:1005C0000F3011461846FFF75DFF00BF1837BD46D4
:1005D00080BD80B582B000AF78607868FFF7B0FF6B
:1005E000034618460837BD4680BD000080B489B078
:1005F00000AF7860396000237B6100233B610023FA
:10060000BB610023FB616BE10122FB6902FA03F38A
:100610007B613B681B687A6913403B613A697B697F
:100620009A4240F05A813B685B6803F00303012B58
:1006300005D03B685B6803F00303022B30D17B6875
:100640009B68BB61FB695B00032202FA03F3DB4397
:10065000BA691340BB613B68DA68FB695B0002FA68
:1006600003F3BA691343BB617B68BA699A607B681C
:100670005B68BB610122FB6902FA03F3DB43BA69E1
:100680001340BB613B685B681B0903F00102FB6917
:1006900002FA03F3BA691343BB617B68BA695A6013
:1006A0003B685B6803F00303032B17D07B68DB68B0
:1006B000BB61FB695B00032202FA03F3DB43BA6907
:1006C0001340BB613B689A68FB695B0002FA03F365
:1006D000BA691343BB617B68BA69DA603B685B68DF
:1006E00003F00303022B23D1FB69DA087B6808328D
:1006F00053F82230BB61FB6903F007039B000F2214
:1007000002FA03F3DB43BA691340BB613B681A6921
:10071000FB6903F007039B0002FA03F3BA69134372
:10072000BB61FB69DA087B680832B96943F82210BB
:100730007B681B68BB61FB695B00032202FA03F361
:10074000DB43BA691340BB613B685B6803F003029B
:10075000FB695B0002FA03F3BA691343BB617B6870
:10076000BA691A603B685B6803F44033002B00F001
:10077000B4800023FB60604B5B6C5F4A43F48043B2
:1007800053645D4B5B6C03F48043FB60FB685B4A26
:10079000FB699B08023352F82330BB61FB6903F00D
:1007A00003039B000F2202FA03F3DB43BA691340F1
:1007B000BB617B68524A93422BD07B68514A93427B
:1007C00025D07B68504A93421FD07B684F4A9342A2
:1007D00019D07B684E4A934213D07B684D4A9342AE
:1007E0000DD07B684C4A934207D07B684B4A9342BA
:1007F00001D107230EE008230CE006230AE00523BD
:1008000008E0042306E0032304E0022302E00123BE
:1008100000E00023FA6902F0030292009340BA69F3
:100820001343BB613549FB699B080233BA6941F840
:1008300023203B4B9B68BB613B69DB43BA69134098
:10084000BB613B685B6803F48013002B03D0BA697B
:100850003B691343BB61324ABB699360304BDB6831
:10086000BB613B69DB43BA691340BB613B685B68B2
:1008700003F40013002B03D0BA693B691343BB6137
:10088000274ABB69D360264B5B68BB613B69DB438E
:10089000BA691340BB613B685B6803F40033002B0B
:1008A00003D0BA693B691343BB611D4ABB695360FE
:1008B0001B4B1B68BB613B69DB43BA691340BB61DF
:1008C0003B685B6803F48033002B03D0BA693B6953
:1008D0001343BB61124ABB691360FB690133FB61BF
:1008E000FB690F2B7FF690AE00BF00BF2437BD46DB
:1008F0005DF8047B704700BF0038024000380140BB
:10090000000002400004024000080240000C0240C7
:10091000001002400014024000180240001C024077
:10092000003C014080B485B000AF78600B467B800E
:100930007B685B69FB607A88FB6813401A04FB687C
:10094000D9437B880B401A437B689A6100BF1437F8
:10095000BD465DF8047B704780B500AF0E4B1B6849
:100960000D4A43F4007313600B4B1B680A4A43F4AF
:1009700080631360084B1B68074A43F4807313605D
:100980000320FFF7FFFD0E2000F010F800F006F83E
:100990000023184680BD00BF003C024080B400AF79
:1009A00000BFBD465DF8047B7047000080B582B093
:1009B00000AF7860124B1A68124B1B7819464FF43F
:1009C0007A73B3FBF1F3B2FBF3F31846FFF701FEC2
:1009D0000346002B01D001230EE07B680F2B0AD8C1
:1009E000002279684FF0FF30FFF7D7FD064A7B6899
:1009F0001360002300E0012318460837BD4680BD80
:100A000000000020080000200400002080B400AF97
:100A1000064B1B781A46064B1B681344044A1360A6
:100A200000BFBD465DF8047B704700BF0800002092
:100A30003000002080B400AF034B1B681846BD4651
:100A40005DF8047B704700BF3000002080B584B0A3
:100A500000AF7860FFF7EEFFB8607B68FB60FB6873
:100A6000B3F1FF3F05D00A4B1B781A46FB681344CD
:100A7000FB6000BFFFF7DEFF0246BB68D31AFA68CF
:100A80009A42F7D800BF00BF1037BD4680BD00BFF7
:100A90000800002008B5064B044613B10021AFF34F
:100AA0000080044B1B6803B198472046FFF7A0FC69
:100AB000000000003400002002440346934200D1AD
:100AC000704703F8011BF9E770B50D4D0D4C641B21
:100AD000A4100026A64209D10B4D0C4C00F018F8CA
:100AE000641BA4100026A64205D170BD55F8043B36
:100AF00098470136EEE755F8043B98470136F2E790
:100B00000C0000200C0000200C0000201000002031
:100B1000F8B500BFF8BC08BC9E467047F8B500BFEA
:0C0B2000F8BC08BC9E46704700000000B6
:080B2C00E8F6FF7F0100000064
:0C0B3400400B000800000020050000003D
:100B40000024F4001000000001000000F101000882
:040B5000C9010008CF
:0400000508000329C3
:00000001FF
